:100000000C947B000C94A3000C94A3000C94A3000C
:100010000C94A3000C94A3000C94A3000C94A300D4
:100020000C94A3000C94A3000C94A3000C94A300C4
:100030000C94A3000C94A3000C94A3000C94A300B4
:100040000C94A4080C94A3000C9472080C944C0813
:100050000C94A3000C94A3000C94A3000C94A30094
:100060000C94EE080C94A3004E414E494E4954594D
:10007000494E46CDCCCC3D0AD7233C17B7D1387773
:10008000CC2B329595E6241FB14F0A000020410089
:1000900000C84200401C4620BCBE4CCA1B0E5AAED3
:1000A000C59D7400000000240027002A0000000005
:1000B00000250028002B00040404040404040402A6
:1000C00002020202020303030303030102040810F5
:1000D00020408001020408102001020408102000C2
:1000E00000000800020100000304070000000000F7
:1000F000000000000D0A11241FBECFEFD8E0DEBFC4
:10010000CDBF23E0A6EDB1E001C01D92A139B20739
:10011000E1F711E0A0E0B1E0E4E8F5E202C005900B
:100120000D92A63DB107D9F710E0CBE7D0E004C0AF
:100130002197FE010E94BA12CA37D107C9F70E945F
:10014000A60A0C94C0120C94000080913C0290917D
:100150003D02891B990B089508950895AF92BF92AF
:10016000CF92DF92EF92FF920F931F93CF93DF9383
:100170006C017B018B01040F151FEB015E01AE18B2
:10018000BF08C017D10759F06991D601ED91FC91D4
:100190000190F081E02DC6010995892B79F7C50101
:1001A000DF91CF911F910F91FF90EF90DF90CF9053
:1001B000BF90AF900895FC01538D448D252F30E002
:1001C000842F90E0821B930B541710F0CF96089564
:1001D00001970895FC01918D828D981761F0A28D91
:1001E000AE0FBF2FB11D5D968C91928D9F5F9F7357
:1001F000928F90E008958FEF9FEF0895FC01918D0D
:10020000828D981731F0828DE80FF11D858D90E079
:1002100008958FEF9FEF0895FC01918D228D892F16
:1002200090E0805C9F4F821B91098F7399270895FE
:100230008EEA92E00E940C0121E0892B09F420E073
:10024000822F089580E090E0892B29F00E94180108
:1002500081110C9400000895FC01A48DA80FB92F02
:10026000B11DA35ABF4F2C91848D90E001968F73DE
:100270009927848FA689B7892C93A089B1898C91FD
:10028000837080648C93938D848D981306C002884C
:10029000F389E02D80818F7D80830895EF92FF9216
:1002A0000F931F93CF93DF93EC0181E0888F9B8D99
:1002B0008C8D98131AC0E889F989808185FF15C053
:1002C0009FB7F894EE89FF896083E889F989808176
:1002D0008370806480839FBF81E090E0DF91CF9145
:1002E0001F910F91FF90EF900895F62E0B8D10E067
:1002F0000F5F1F4F0F731127E02E8C8D8E110CC0D6
:100300000FB607FCFACFE889F989808185FFF5CF20
:10031000CE010E942C01F1CFEB8DEC0FFD2FF11DD2
:10032000E35AFF4FF0829FB7F8940B8FEA89FB895D
:1003300080818062CFCFCF93DF93EC01888D8823BB
:10034000B9F0AA89BB89E889F9898C9185FD03C038
:10035000808186FD0DC00FB607FCF7CF8C9185FF1D
:10036000F2CF808185FFEDCFCE010E942C01E9CF35
:10037000DF91CF91089590E0FC01E152FF4F24916D
:10038000FC01E553FF4F3491FC01E954FF4FE49128
:10039000EE23C9F0222339F0233001F1A8F42130F3
:1003A00019F1223029F1F0E0EE0FFF1FE355FF4F66
:1003B000A591B4918FB7F894EC91611126C0309556
:1003C0003E233C938FBF08952730A9F02830C9F011
:1003D000243049F7809180008F7D03C08091800098
:1003E0008F7780938000DFCF84B58F7784BDDBCF9C
:1003F00084B58F7DFBCF8091B0008F778093B00064
:10040000D2CF8091B0008F7DF9CF3E2BDACFCF9342
:10041000DF9390E0FC01E553FF4F249189549F4FF7
:10042000FC0184918823D1F090E0880F991FFC0192
:10043000ED55FF4FA591B491FC01E355FF4FC591D8
:10044000D49161110EC09FB7F8948C91E22FE09582
:100450008E238C932881E223E8839FBFDF91CF9185
:1004600008958FB7F894EC91E22BEC938FBFF6CF01
:100470003FB7F8948091220290912302A091240228
:10048000B091250226B5A89B05C02F3F19F0019613
:10049000A11DB11D3FBFBA2FA92F982F8827BC01DE
:1004A000CD01620F711D811D911D42E0660F771F06
:1004B000881F991F4A95D1F708958F929F92AF9206
:1004C000BF92CF92DF92EF92FF924B015C010E94AC
:1004D00038026B017C010E9438026C197D098E097B
:1004E0009F09683E734081059105A8F321E0821AB7
:1004F0009108A108B10888EEC80E83E0D81EE11C5F
:10050000F11C81149104A104B10429F7FF90EF902C
:10051000DF90CF90BF90AF909F908F900895EF9213
:10052000FF920F931F93CF93DF93E62EFC0101817F
:10053000F080C8E0D0E010E86E2D61238F2D0E947E
:10054000BB0161E0802F0E94BB0160E0802F0E9410
:10055000BB011695219781F780E0DF91CF911F9124
:100560000F91FF90EF9008950F931F93CF93DF9318
:10057000DC0119968C911997481708F08CC01A96CF
:100580008D919C911B97EB018617970708F4EC015E
:10059000E42FF0E03696EE0FFF1FEA0FFB1F71838A
:1005A000608360E070E1413011F460E070E95196E1
:1005B0002C9151972111706450962C9150972130B5
:1005C00009F470628F3F2FE0920709F048C0C62BF4
:1005D000D72B8D0160E012968C910E94BB012D2FCC
:1005E0009C2FF8018481882309F44CC04589368901
:1005F00080911C02882361F08FB7F89450911C02FF
:100600005130D9F55DB350931B025DB35DBB8FBF15
:100610004CBD3DBD2EBD00000DB407FEFDCF8EB517
:100620009EBD00000DB407FEFDCF8EB580911C026B
:10063000882351F09FB7F89420911C0280911B02EF
:100640002130F1F48DBB9FBF61E0F80182810E94EF
:10065000BB0181E0DF91CF911F910F9108958F3FF2
:10066000934029F4CC0FDD1FCC0FDD1FB0CF84E009
:10067000CC0FDD1F8A95E1F7AACF80931B02C8CF6C
:100680008FBFE2CF6D2FC8010E948F026C2FC8016F
:100690000E948F02D9CF80E0DDCF2091F701260F95
:1006A0003327331F21323105ECF420918402FC0101
:1006B00090E080E0243069F082E00895A091F70195
:1006C0002191AC0149525E4FA40FB52FB11D2C935F
:1006D0000196861798F38091F701680F6093F701F0
:1006E00080E0089581E008951092840281E0809373
:1006F000830210925E0261E082E10E94BB0161E030
:1007000083E10E94BB01E9EBF0E080818E7F808372
:1007100080818D7F808388E48093B80085E4809316
:10072000BC000895CF93DF9391E09093D601882386
:10073000B9F0C091B800D091BA008091BC008A7B1A
:100740008093BC0060E082E10E94BB0160E083E135
:100750000E94BB010E947403D093BA00C093B800FA
:10076000DF91CF9108958F929F92AF92BF92CF92D7
:10077000DF92EF92FF920F931F93CF93DF93D0916D
:10078000AD02D13208F0D7C0182FC091AC020E9440
:1007900038026B017C018091840281116BC082E080
:1007A00080938402109383028FEF809382021092D1
:1007B0008102D0938002ACE8B2E0E0E6F2E080E0B3
:1007C000D81391C010925F0280915F02CC0FC82BAA
:1007D000C0935F0280915E02813009F088C0109260
:1007E0005E020E9438026B017C0180915F0280935F
:1007F000BB008091860290918702A0918802B091FF
:100800008902892B8A2B8B2BA1F00E943802009140
:1008100086021091870220918802309189026C191A
:100820007D098E099F09061717072807390708F45D
:1008300042C08091BC0083FDD8CF85EC8093BC0082
:100840000E9438026B017C0180918402823009F49D
:1008500050C0809182028F3F09F46FC08091820264
:10086000803209F46CC080918202803309F469C03F
:1008700084E026C08091860290918702A091880230
:10088000B0918902892B8A2B8B2B09F484CF0E948B
:1008900038028090860290908702A0908802B090E3
:1008A00089026C197D098E099F0986169706A8068C
:1008B000B90608F070CF809185020E94920385E00E
:1008C00010928B021092AD0210928A02DF91CF91AA
:1008D0001F910F91FF90EF90DF90CF90BF90AF905E
:1008E0009F908F9008959D9191938F5F69CF85EE32
:1008F000A5CF8091860290918702A0918802B09145
:100900008902892B8A2B8B2B09F49ECF0E943802F7
:10091000009186021091870220918802309189020D
:100920006C197D098E099F090617170728073907D3
:1009300008F08ACFC0CF81E0C3CF80E0C1CF82E092
:10094000BFCF83E0BDCF0895E0913D0280913C028E
:10095000E81730F4F0E0E25CFD4F808190E008950C
:100960008FEF9FEF089590913D0280913C022FEF11
:100970003FEF981748F4E92FF0E0E25CFD4F20814B
:1009800030E09F5F90933D02C9010895CF92DF92BE
:10099000EF92FF920F931F93CF93DF937C01CB01D4
:1009A0008A0120918A02222389F0EB016B01C40E97
:1009B000D51ECC15DD0569F06991D701ED91FC914B
:1009C0000190F081E02DC7010995F3CF642F0E94BB
:1009D0004D03C801DF91CF911F910F91FF90EF90D0
:1009E000DF90CF900895CF93DF931F92CDB7DEB7FE
:1009F000698320918A022223F9F02091AD022032EE
:100A000058F021E030E0FC013383228390E080E065
:100A10000F90DF91CF91089580918B02E82FF0E045
:100A2000E457FD4F998190838F5F80938B02809371
:100A3000AD0281E090E0ECCF61E0CE0101960E9432
:100A40004D03F7CF90E080E00895FC010190002075
:100A5000E9F73197AF01481B590BBC018EEA92E0D0
:100A60000C94AE008F929F92AF92BF920F931F9300
:100A7000CF93DF93CDB7DEB7A1970FB6F894DEBF63
:100A80000FBECDBF19A2423008F44AE08E010F5DBF
:100A90001F4F842E912CB12CA12CA50194010E94F2
:100AA0009812E62FB901CA01EA30F4F4E05DD801EA
:100AB000EE938D01232B242B252B79F790E080E0FA
:100AC000109719F0CD010E942505A1960FB6F89454
:100AD000DEBF0FBECDBFDF91CF911F910F91BF90B1
:100AE000AF909F908F900895E95CE1CFCF93DF9313
:100AF0000E942505EC018BE691E00E9425058C0FF4
:100B00009D1FDF91CF910895CF93DF93462F682FDC
:100B100070E090E080E00E943205EC018BE691E00D
:100B20000E9425058C0F9D1FDF91CF910895CF92D4
:100B3000DF92EF92FF920F931F93CF93DF93D82F03
:100B4000C62F0E9438026B017C01809184028111C2
:100B500065C081E080938402809383029FEF90932D
:100B60008202109281029C0F9093800280935F0218
:100B700080915F02DD0FD82BD0935F0280915E02DF
:100B8000813009F07FC010925E020E9438026B0132
:100B90007C0180915F028093BB00809186029091DE
:100BA0008702A0918802B0918902892B8A2B8B2B16
:100BB000A1F00E94380200918602109187022091D4
:100BC0008802309189026C197D098E099F090617E8
:100BD00017072807390708F442C08091BC0083FD3D
:100BE000D8CF85EC8093BC000E9438026B017C0159
:100BF00080918402813009F447C0809181028C1772
:100C000010F4C0918102A0E6B2E0EEE3F2E080E0F1
:100C10008C1751F19D9191938F5FFACF809186024D
:100C200090918702A0918802B0918902892B8A2B2A
:100C30008B2B09F48ACF0E94380200918602109112
:100C4000870220918802309189026C197D098E09F2
:100C50009F09061717072807390708F076CF8091F4
:100C600085020E949203C0E010923D02C0933C02B4
:100C70008C2FDF91CF911F910F91FF90EF90DF901C
:100C8000CF90089585EEAECF809186029091870235
:100C9000A0918802B0918902892B8A2B8B2B09F4B1
:100CA000A7CF0E94380200918602109187022091FE
:100CB0008802309189026C197D098E099F090617F7
:100CC00017072807390708F093CFC9CF2F923F9213
:100CD0004F925F926F927F928F929F92AF92BF924C
:100CE000CF92DF92EF92FF920F931F93CF93DF93F8
:100CF00000D000D000D0CDB7DEB74C015E834D836D
:100D00008901F0904C0380914D036F2960689091A8
:100D10004B03692BF401908121E020938A02909388
:100D2000AC0210928B021092AD02682B82E593E028
:100D30000E94F30481E00E94B3038823D9F081E08C
:100D400090E026960FB6F894DEBF0FBECDBFDF91C0
:100D5000CF911F910F91FF90EF90DF90CF90BF90B8
:100D6000AF909F908F907F906F905F904F903F904B
:100D70002F9008950E9438025B016C018F2D90E046
:100D8000959587958730910508F0A0C0FC01EE0F7E
:100D9000FF1FE80FF91FEE5CFE4F80819181A28159
:100DA000BC018A2F90E06115F0E47F078105910571
:100DB00008F48FC028EE33E040E050E00E94981223
:100DC000CA01B9010E945D02AE014F5F5F4F7A0117
:100DD0001E0155E0250E311CF0EC4F2EFDEB5F2E71
:100DE000F0EF6F2E77247A944A185B086C087D0820
:100DF00019821A821B821C8264E0F40180810E94A5
:100E0000970580913C0290913D02891B990B0497B4
:100E100009F071C0670182E593E00E94B304F60116
:100E200081936F012E163F06B1F78C81982F9C702D
:100E30009C3009F05BC0F801808323E0F8018081D9
:100E400087FD59C08C7090E0AC0156954795840F92
:100E5000951FFC01E35EFE4F608071808280682DEB
:100E6000A301062E000C770B2A013B01885F9E4FE1
:100E7000FC01408151816281F70180E090E0DC015A
:100E80003191BA2FA92F982F8827832B3E2F3E19F7
:100E90003217B0F3ED81FE8180839183A283B38307
:100EA000482259226A227B2245284628472859F0A1
:100EB000062E000C770B842B952BA62BB72B80834B
:100EC0009183A283B38390E080E03BCF60E070E049
:100ED000CB016230710508F477CFCB01880F991FE1
:100EE000880F991F05970197F1F76ECF8B81F80155
:100EF000808322E0A3CF0E943802640D751D861DF9
:100F0000971D97FD75CF83E090E01BCF0F931F9344
:100F1000CF93DF93EC01862F6A8361E00E94070282
:100F200061E08A810E94BB010D811E812F8138857D
:100F300040E052E16AE770E080E0041715072607F9
:100F4000370740F476956795579547958F5F8630BC
:100F5000A1F787E0982F906A96959D8B8095817078
:100F60008E8B8C81882309F44BC09FB7F8948091B5
:100F70001A02882319F0815080931A0280911A0274
:100F8000811105C08CB58F7B8CBD10921C029FBF58
:100F9000CFB7F89480911A02811127C0E1ECF0E0FC
:100FA0008491E5EDF0E09491E82FF0E0EE0FFF1F63
:100FB000ED55FF4FA591B491EC91E92321F461E047
:100FC0008AE00E94BB0161E08AE00E9407028CB5C2
:100FD00080618CBD8CB580648CBD61E08DE00E9429
:100FE000070261E08BE00E94070280911A028F5F86
:100FF00080931A02CFBFDF91CF911F910F91089577
:1010000061E088810E94070261E089810E940702F5
:1010100060E088810E94BB0160E08981DF91CF910F
:101020001F910F910C94BB0185ED8093BC008091C2
:10103000860290918702A0918802B091890207965A
:10104000A11DB11D23E0B695A795979587952A9583
:10105000D1F72091BC0024FD03C0109284020895B2
:1010600040918602509187026091880270918902B6
:10107000452B462B472B69F30097A105B10541F09D
:101080002AE22A95F1F700C00197A109B109E1CF41
:10109000809185020C9492031F920F920FB60F92CB
:1010A00011242F933F934F935F936F937F938F936D
:1010B0009F93AF93BF93EF93FF938EEA92E00E94CA
:1010C0002C01FF91EF91BF91AF919F918F917F91F3
:1010D0006F915F914F913F912F910F900FBE0F90A5
:1010E0001F9018951F920F920FB60F9211242F93F5
:1010F0008F939F93EF93FF93E091BE02F091BF0215
:101100008081E091C402F091C50282FD1BC09081F4
:101110008091C7028F5F8F732091C802821741F0C0
:10112000E091C702F0E0E255FD4F958F8093C70232
:10113000FF91EF919F918F912F910F900FBE0F9084
:101140001F9018958081F4CF1F920F920FB60F92C7
:1011500011242F933F938F939F93AF93BF938091CD
:101160001E0290911F02A0912002B09121023091A5
:101170001D0223E0230F2D3758F50196A11DB11D47
:1011800020931D0280931E0290931F02A0932002C1
:10119000B09321028091220290912302A091240217
:1011A000B09125020196A11DB11D8093220290935A
:1011B0002302A0932402B0932502BF91AF919F9187
:1011C0008F913F912F910F900FBE0F901F90189508
:1011D00026E8230F0296A11DB11DD2CF1F920F92B8
:1011E0000FB60F9211242F933F934F935F936F93FA
:1011F0007F938F939F93AF93BF93EF93FF938091D0
:10120000B900887F803609F44AC0F0F5883209F4C5
:10121000A7C018F5803109F49BC0B8F4882309F4FD
:10122000F9C0883009F494C0FF91EF91BF91AF915C
:101230009F918F917F916F915F914F913F912F91EE
:101240000F900FBE0F901F901895883109F488C039
:10125000803251F78093820214C0803409F49DC01B
:1012600040F48033B9F38833F9F68093820285EC39
:10127000B0C0803509F485C0883509F496C088343B
:1012800099F60E941408D0CF883909F48CC038F53B
:10129000883729F050F4883611F0803729F683E03A
:1012A000809384021092190257C0883809F47BC0D9
:1012B000803919F0803809F0B7CF80911902803257
:1012C00008F071C0E091190281E08E0F809319023D
:1012D0008091BB00F0E0E750FE4F80833DC0803B33
:1012E00039F0E0F4803A09F479C0883A09F09CCFEB
:1012F00084E0809384021092F8011092F701E0914B
:101300002802F091290209958091F70181110FC0FF
:1013100081E08093F7011092D70109C0803C09F465
:10132000A6CF883C09F4A3CF883B09F07DCFE0919C
:10133000F80181E08E0F8093F801F0E0E952FE4F52
:1013400080818093BB009091F8018091F70129C0C2
:1013500080915F028093BB0085EC8093BC0064CFDA
:101360009091810280918002981758F5E091810256
:1013700081E08E0F80938102F0E0E05AFD4F808182
:10138000E9CFE091810281E08E0F8093810280910C
:10139000BB00F0E0E05AFD4F808390918102809184
:1013A00080029817C8F285E8D8CFE091810281E0E9
:1013B0008E0F809381028091BB00F0E0E05AFD4FD8
:1013C00080838091830281115CCF81E080935E02F3
:1013D00084EA8093BC001092840226CF85EC80932F
:1013E000BC001092840280911902803230F4E091A6
:1013F0001902F0E0E750FE4F10826091190270E090
:10140000E0912602F091270289EF91E00995109270
:1014100019020ACF1092820234CFCF92DF92EF925C
:10142000FF92EEEAF2E01382128288EE93E0A0E0EF
:10143000B0E084839583A683B7832BE431E03183C6
:10144000208325EC30E03587248724EC30E0378793
:10145000268720EC30E0318B208B21EC30E0338B81
:10146000228B22EC30E0358B248B26EC30E0378B5E
:10147000268B118E128E138E148E1092510320E241
:101480002093500320E420934F0320E620934E0343
:1014900010924D032CE020934C0310924B03E2E595
:1014A000F3E01382128284839583A683B7838DE54C
:1014B00091E091838083E8E7F3E09FEF9383C12C71
:1014C00084E2D82E84EFE82EF12CC582D682E78202
:1014D000F086118A81E0828B50E5558B168A67E78A
:1014E00073E0748B638B9083918312828483808BEF
:1014F000158614861786168642E041872FEF3FE057
:1015000033872287E0E6F3E09383C582D682E782C1
:10151000F086118A828B558B168A748B638B90832D
:10152000918312828483808B158614861786168693
:1015300041873387228788E680935F038CE6809318
:101540005E03FF90EF90DF90CF900895CF93DF93ED
:10155000CDB7DEB729970FB6F894DEBF0FBECDBF6B
:10156000789484B5826084BD84B5816084BD85B57E
:10157000826085BD85B5816085BD80916E0081608A
:1015800080936E0010928100809181008260809330
:101590008100809181008160809381008091800032
:1015A0008160809380008091B10084608093B1005D
:1015B0008091B00081608093B00080917A00846057
:1015C00080937A0080917A00826080937A00809183
:1015D0007A00816080937A0080917A00806880939D
:1015E0007A001092C10088E0E0E0F1E0DE0111969F
:1015F00001900D928A95E1F761E087E00E94070271
:1016000060E088E00E94070260E087E00E94BB0182
:10161000E091BE02F091BF0282E08083E091BA02C5
:10162000F091BB021082E091BC02F091BD0280E11A
:1016300080831092C602E091C202F091C30286E05C
:101640008083E091C002F091C1028081806180833B
:10165000E091C002F091C102808188608083E091B6
:10166000C002F091C102808180688083E091C00255
:10167000F091C10280818F7D80836AE088E793E0EA
:101680000E94860769E080E693E00E948607109238
:101690003D0210923C0210928B021092AD020E9409
:1016A00074038CEA90E090932902809328028DEADB
:1016B00090E0909327028093260264E670E080E039
:1016C00090E00E945D0281E080938A021092AC0259
:1016D00066E082E593E00E94F30481E00E94B30398
:1016E00061E070E080E090E00E945D02CE01019632
:1016F0007C018E01075F1F4FF701D1907F0161E0F0
:101700008D2D0E94970590913C0280913D02981783
:1017100049F08EE691E00E94250560E170E08D2D94
:101720000E9484050E151F0539F761E088E60E94C6
:10173000970590913C0280913D02981310C087E874
:1017400091E00E94250540E168E670E080E090E0CD
:101750000E9432058BE691E00E942505FFCF61E0F3
:101760008CE60E94970590913C0280913D0298136F
:1017700010C087E891E00E94250540E16CE670E02A
:1017800080E090E00E9432058BE691E00E94250502
:10179000FFCF83EA91E00E94760561E087E00E9436
:1017A000BB0130E0A32E30E0B32E8EEA92E00E941F
:1017B0000C011816190684F48EEA92E00E94EA00E1
:1017C00020913A0230913B022115310579F48D3098
:1017D00019F08A3009F097C2A114B10431F30E94C4
:1017E0001801882311F30E940000DFCF8D3019F01B
:1017F0008A3009F088C2265D3D4FF9011082809140
:101800002A02863509F47CC244F4873471F08335AA
:1018100009F4B7C18FEA91E0EDC1833709F4B1C192
:10182000863709F46DC28736A9F780912B0283337E
:1018300009F4B7C08CF4813309F446C0823351F700
:1018400019821A821B821C8219869801AE014F5F91
:101850005F4F6091500343C0853309F4F7C00CF427
:10186000CAC08633B9F619821A821B821C82198675
:101870009801AE014F5F5F4F609151038EE593E099
:101880000E946606F82E811132C069817A818B81AF
:101890009C810E940F102FE632E143E857E30E943B
:1018A0006E102AE037ED43E25CE30E94ED1120E088
:1018B00030E44CE156E40E94ED1120E030E048ECC9
:1018C00052E40E946E10BBC019821A821B821C82D5
:1018D00019869801AE014F5F5F4F609151038FE50C
:1018E00093E00E946606F82E882309F43FC08AEA36
:1018F00091E00E9425056AE070E08F2D0E9484052A
:10190000C12CD12C20ECE22E2FE7F22EA70196015C
:10191000C701B6010E949312811121C0260137012F
:10192000E89477F82FEF3FEF4FE75FE7C301B2018D
:101930000E9493128111B3C02FEF3FEF4FE75FE793
:10194000C301B2010E94081018160CF0A8C083EB66
:1019500091E00E9425058BE691E00E9425051092FA
:101960003B0210923A0210922A0236CF69817A81A4
:101970008B819C810E940F102FE632E143E857E3F0
:101980000E946E1020E030E64AEE56E40E946E108F
:1019900020E030E84BE355E40E94ED116B017C013F
:1019A000B5CF19821A821B821C8219869801AE015A
:1019B0004F5F5F4F60914F038FE593E00E94660693
:1019C000F82E811194CF69817A818B819C810E944C
:1019D0000F102FE632E143E857E30E946E10905853
:1019E00020E030E84BE356E40E946E1020E030E83F
:1019F0004BE356E4D1CF19821A821B821C821986CE
:101A00009801AE014F5F5F4F60914E038FE593E009
:101A10000E946606F82E81116ACF69817A818B81D6
:101A20009C810E940F102FE632E143E857E30E94A9
:101A30006E1028E736E344ED52E40E94ED1120E0F9
:101A400030E04AE754E40E946E10A8CF19821A824F
:101A50001B821C8219869801AE014F5F5F4F609117
:101A600050038EE593E00E946606F82E81113FCF69
:101A700069817A818B819C810E940F102FE632E16F
:101A800043E857E30E946E1020E030EC4AE556E44C
:101A90000E946E1020E030E04AEF54E47DCF2FEF3B
:101AA0003FEF4FE75FE4C701B6010E948E121816A0
:101AB0001CF487EB91E04DCF2FEF3FEF4FE75FEC4A
:101AC000C701B6010E94081087FDF3CF20E030E087
:101AD000A901C701B6010E94081087FF09C06DE285
:101AE0008EEA92E00E944E01F7FAF094F7F8F09433
:101AF0002EE632E143E05AE3C701B6010E948111AC
:101B00006B017C010E945F122B013C010E940D10B1
:101B10009B01AC01C701B6010E9480116B017C01E1
:101B20004AE0C301B2010E9432056EE28EEA92E001
:101B30000E944E0194E0992E9A94992009F40BCFBB
:101B400020E030E040E251E4C701B6010E946E108F
:101B50002B013C010E945F126B01F12CE12C4AE049
:101B6000C701B6010E943205C701B6010E940D10DF
:101B70009B01AC01C301B2010E9480116B017C0189
:101B8000DBCF8CE292E00E94930E6B017C0180918E
:101B90002B02823391F1833309F453C0813309F06E
:101BA00039CE20E030E84BE355E4C701B6010E948E
:101BB0006E1020E030E64AE656E40E94ED112FE672
:101BC00032E143E850E40E94ED1120E030EF4FE7AE
:101BD00055E40E946E100E945F126115F0E17F07CC
:101BE00010F06FEF7FE040E088E793E00E94B402DE
:101BF0008BEB91E00E947605B2CE20E030E84BE31B
:101C000055E4C701B6010E946E1020E030E64AE6B6
:101C100056E40E94ED112FE632E143E850E40E94C1
:101C2000ED1120E030EF4FE755E40E946E100E9466
:101C30005F12611580E1780710F06FEF7FE041E0FF
:101C4000D3CF20E030E0A901C701B6010E940810FF
:101C500087FF2FC0C701B601905820E030E84BE362
:101C600056E40E946E1020E030E84BE355E40E94F9
:101C7000ED112FE632E143E850E40E94ED1120E03F
:101C800030EF4FE755E40E946E100E945F1261151D
:101C900090E1790710F06FEF7FE0F12CE12C40E04C
:101CA00080E693E00E94B40241E0B70180E693E051
:101CB0009DCF20E030E84BE356E4C701B6010E9417
:101CC0006E1020E030E84BE355E40E94ED112FE662
:101CD00032E143E850E40E94ED1120E030EF4FE79D
:101CE00055E40E946E100E945F127B0161157041E5
:101CF00020F0EE24EA948FE0F82E70E060E0CFCF81
:101D00008EEB91E077CFA9014F5F5F4F50933B027D
:101D100040933A02265D3D4FF901808340315105E1
:101D20000CF45ACD77CD662777270C94970EB0E048
:101D3000A0E0EDE9FEE00C9440115C017B0161152F
:101D4000710519F0DB018D939C9385010F5F1F4F87
:101D5000F501D0818D2F90E00E94E70F6C01892B57
:101D6000B9F5DD32B9F50F5F1F4FD5011196DC9142
:101D7000C1E05801F1E0AF1AB10843E050E060E77C
:101D800070E0C5010E94F00F892B69F5680182E0BF
:101D9000C80ED11C45E050E06BE670E0C6010E9421
:101DA000F00F892B21F4680197E0C90ED11CE114D2
:101DB000F10419F0D701CD92DC9260E070E080E888
:101DC0009FEFC111FFC060E070E080E89FE7FAC0BC
:101DD0005801BBCFDB3229F485010E5F1F4FF5019F
:101DE000D181C0E0C6CF43E050E068E670E0C501B5
:101DF0000E94F00F892BE9F0F80110E000E020E0EC
:101E000030E0A9015F01B0ED8B2E8D0E89E08815C1
:101E1000C8F19C2E689491F88C2F8870C2FF16C070
:101E2000811102C00F5F1F4F3196D501DC91C92D82
:101E3000E9CFE114F10429F00E5F1F4FF701118380
:101E4000008360E070E080EC9FE7BCC0882311F065
:101E500001501109A5E0B0E00E942F119B01AC01D7
:101E6000220F331F441F551F280D311D411D511DC9
:101E7000283999E93907490799E15907A8F2C66055
:101E80009C2ED2CFAEEF8A1206C0C3FD3CC09C2E62
:101E9000689493F8C9CFDF7DD534A9F580818D3260
:101EA00039F4C061DF011296818162E070E006C002
:101EB000DF018B32C1F3119661E070E080535D0168
:101EC000A61AB70A8A30F8F4E0E8CE16ECE0DE068F
:101ED0005CF4B601660F771F660F771FC60ED71E1C
:101EE000CC0CDD1CC80ED11C5D01FFEFAF1ABF0A80
:101EF0008C9180538A30A8F1C4FF03C0D194C1945F
:101F0000D1080C0D1D1DC1FF09C0E114F10431F011
:101F100081E0A81AB108D701AD92BC92CA01B901FB
:101F20000E940D10C370C33009F490584B015C013E
:101F300020E030E0A9010E940810882309F440C085
:101F4000CFE9D0E017FF05C0119501951109C7E849
:101F5000D0E06E01B8E1CB1AD10880E2E82EF12C76
:101F60000FC0D501B1CFFE01259135914591549116
:101F70000E191F09C501B4010E946E104B015C01CE
:101F8000D501C4010E151F0574F72497F594E79445
:101F9000CC16DD06A9F78A2F880F8B2F881F8F3F5D
:101FA00049F020E030E0A901C501B4010E94081009
:101FB000811106C082E290E09093900380938F039A
:101FC000C501B401CDB7DEB7ECE00C945C11911102
:101FD0000C94DB10803219F089508550C8F70895B1
:101FE000FB01DC014150504088F08D9181341CF0A0
:101FF0008B350CF4805E659161341CF06B350CF40C
:10200000605E861B611171F3990B0895881BFCCFEC
:102010000E944A1008F481E00895E89409C097FBF3
:102020003EF490958095709561957F4F8F4F9F4FAF
:102030009923A9F0F92F96E9BB279395F6958795F3
:1020400077956795B795F111F8CFFAF4BB0F11F4B6
:1020500060FF1BC06F5F7F4F8F4F9F4F16C088235D
:1020600011F096E911C0772321F09EE8872F762F93
:1020700005C0662371F096E8862F70E060E02AF0D4
:102080009A95660F771F881FDAF7880F96958795C0
:1020900097F90895990F0008550FAA0BE0E8FEEF95
:1020A00016161706E807F907C0F012161306E4071C
:1020B000F50798F0621B730B840B950B39F40A2615
:1020C00061F0232B242B252B21F408950A2609F4F3
:1020D000A140A6958FEF811D811D08950E9481105A
:1020E0000C94F5100E94E71038F00E94EE1020F0DA
:1020F000952311F00C94DE100C94E41011240C9430
:1021000029110E94061170F3959FC1F3950F50E0BD
:10211000551F629FF001729FBB27F00DB11D639F99
:10212000AA27F00DB11DAA1F649F6627B00DA11D3F
:10213000661F829F2227B00DA11D621F739FB00DE5
:10214000A11D621F839FA00D611D221F749F332755
:10215000A00D611D231F849F600D211D822F762FEE
:102160006A2F11249F5750409AF0F1F088234AF0CB
:10217000EE0FFF1FBB1F661F771F881F9150504037
:10218000A9F79E3F510580F00C94DE100C942911A4
:102190005F3FE4F3983ED4F3869577956795B795BE
:1021A000F795E7959F5FC1F7FE2B880F911D9695D8
:1021B000879597F9089599278827089597F99F6734
:1021C00080E870E060E008959FEF80EC08950024BF
:1021D0000A941616170618060906089500240A948C
:1021E00012161306140605060895092E0394000C12
:1021F00011F4882352F0BB0F40F4BF2B11F460FFA1
:1022000004C06F5F7F4F8F4F9F4F089557FD9058C9
:10221000440F551F59F05F3F71F04795880F97FBAA
:10222000991F61F09F3F79F0879508951216130664
:102230001406551FF2CF4695F1DF08C01616170693
:102240001806991FF1CF86957105610508940895C8
:10225000E894BB2766277727CB0197F908950E945A
:102260007111A59F900DB49F900DA49F800D911D9D
:10227000112408952F923F924F925F926F927F9216
:102280008F929F92AF92BF92CF92DF92EF92FF9286
:102290000F931F93CF93DF93CDB7DEB7CA1BDB0B32
:1022A0000FB6F894DEBF0FBECDBF09942A883988D7
:1022B00048885F846E847D848C849B84AA84B984DE
:1022C000C884DF80EE80FD800C811B81AA81B981EA
:1022D000CE0FD11D0FB6F894DEBF0FBECDBFED01FE
:1022E0000895A29FB001B39FC001A39F700D811DEF
:1022F0001124911DB29F700D811D1124911D08950F
:102300005058BB27AA270E9498110C94F5100E94E0
:10231000E71038F00E94EE1020F039F49F3F19F4D6
:1023200026F40C94E4100EF4E095E7FB0C94DE1018
:10233000E92F0E94061158F3BA1762077307840742
:10234000950720F079F4A6F50C9428110EF4E09589
:102350000B2EBA2FA02D0B01B90190010C01CA015F
:10236000A0011124FF27591B99F0593F50F4503E0A
:1023700068F11A16F040A22F232F342F4427585FFC
:10238000F3CF469537952795A795F0405395C9F714
:102390007EF41F16BA0B620B730B840BBAF09150CC
:1023A000A1F0FF0FBB1F661F771F881FC2F70EC06B
:1023B000BA0F621F731F841F48F48795779567953E
:1023C000B795F7959E3F08F0B0CF9395880F08F02A
:1023D0009927EE0F9795879508950E9401120C9406
:1023E000F5100E94EE1058F00E94E71040F029F41A
:1023F0005F3F29F00C94DE1051110C9429110C94BC
:10240000E4100E94061168F39923B1F3552391F368
:10241000951B550BBB27AA2762177307840738F053
:102420009F5F5F4F220F331F441FAA1FA9F335D0B0
:102430000E2E3AF0E0E832D091505040E695001C64
:10244000CAF72BD0FE2F29D0660F771F881FBB1F1E
:10245000261737074807AB07B0E809F0BB0B802DFC
:10246000BF01FF2793585F4F3AF09E3F510578F028
:102470000C94DE100C9429115F3FE4F3983ED4F3E2
:10248000869577956795B795F7959F5FC9F7880FFC
:10249000911D9695879597F90895E1E0660F771F4E
:1024A000881FBB1F621773078407BA0720F0621BDF
:1024B000730B840BBA0BEE1F88F7E09508950E940A
:1024C0000E1188F09F5798F0B92F9927B751B0F0A7
:1024D000E1F0660F771F881F991F1AF0BA95C9F7A8
:1024E00014C0B13091F00E942811B1E008950C940D
:1024F0002811672F782F8827B85F39F0B93FCCF3C0
:10250000869577956795B395D9F73EF49095809524
:10251000709561957F4F8F4F9F4F08950E944A108D
:1025200008F48FEF08950E944A10880B990B0895C4
:10253000A1E21A2EAA1BBB1BFD010DC0AA1FBB1FC7
:10254000EE1FFF1FA217B307E407F50720F0A21B39
:10255000B30BE40BF50B661F771F881F991F1A94A6
:1025600069F760957095809590959B01AC01BD01D0
:10257000CF010895EE0FFF1F0590F491E02D09940F
:04258000F894FFCFFD
:1025840068696A6B6C6D6E6F00F0FF00000000C03C
:10259400FF0000000000FF0000000000FC00080035
:1025A4000000000020000000000080000000000087
:1025B40000024710000000001B41000000006B04F3
:1025C40001000000AB1104000000004E01AE00DB6E
:1025D400009B010C01EA00FE0000000000F304C6A9
:1025E400042205A304A500B304A4040D0A00446551
:1025F4007669636520666F756E642061742061641A
:10260400647265737320004E6F2064657669636538
:1026140020666F756E6420617420616464726573F2
:102624007320000A526561647900455252200045C6
:10263400525200696E66006F7666004F4B00547507
:1026440062655465737465722076657273696F6E22
:0626540020302E303100A1
:00000001FF
